{
  "contractName": "Ballot",
  "abi": [
    {
      "constant": true,
      "inputs": [
        {
          "name": "",
          "type": "uint256"
        }
      ],
      "name": "proposals",
      "outputs": [
        {
          "name": "name",
          "type": "bytes32"
        },
        {
          "name": "voteCount",
          "type": "int256"
        }
      ],
      "payable": false,
      "stateMutability": "view",
      "type": "function"
    },
    {
      "constant": true,
      "inputs": [],
      "name": "owner",
      "outputs": [
        {
          "name": "",
          "type": "address"
        }
      ],
      "payable": false,
      "stateMutability": "view",
      "type": "function"
    },
    {
      "constant": true,
      "inputs": [
        {
          "name": "",
          "type": "address"
        }
      ],
      "name": "voters",
      "outputs": [
        {
          "name": "voted",
          "type": "bool"
        }
      ],
      "payable": false,
      "stateMutability": "view",
      "type": "function"
    },
    {
      "constant": false,
      "inputs": [
        {
          "name": "proposalNames",
          "type": "bytes32[]"
        }
      ],
      "name": "initialize",
      "outputs": [],
      "payable": false,
      "stateMutability": "nonpayable",
      "type": "function"
    }
  ],
  "bytecode": "0x608060405234801561001057600080fd5b50610508806100206000396000f3fe608060405260043610610062576000357c0100000000000000000000000000000000000000000000000000000000900463ffffffff168063013cf08b1461006757806337ea92f5146100bd5780638da5cb5b14610182578063a3ec138d146101d9575b600080fd5b34801561007357600080fd5b506100a06004803603602081101561008a57600080fd5b8101908080359060200190929190505050610242565b604051808381526020018281526020019250505060405180910390f35b3480156100c957600080fd5b50610180600480360360208110156100e057600080fd5b81019080803590602001906401000000008111156100fd57600080fd5b82018360208201111561010f57600080fd5b8035906020019184602083028401116401000000008311171561013157600080fd5b919080806020026020016040519081016040528093929190818152602001838360200280828437600081840152601f19601f820116905080830192505050505050509192919290505050610275565b005b34801561018e57600080fd5b5061019761047a565b604051808273ffffffffffffffffffffffffffffffffffffffff1673ffffffffffffffffffffffffffffffffffffffff16815260200191505060405180910390f35b3480156101e557600080fd5b50610228600480360360208110156101fc57600080fd5b81019080803573ffffffffffffffffffffffffffffffffffffffff1690602001909291905050506104a0565b604051808215151515815260200191505060405180910390f35b60358181548110151561025157fe5b90600052602060002090600202016000915090508060000154908060010154905082565b600060019054906101000a900460ff168061029457506102936104cb565b5b806102ab57506000809054906101000a900460ff16155b1515610345576040517f08c379a000000000000000000000000000000000000000000000000000000000815260040180806020018281038252602e8152602001807f436f6e747261637420696e7374616e63652068617320616c726561647920626581526020017f656e20696e697469616c697a656400000000000000000000000000000000000081525060400191505060405180910390fd5b60008060019054906101000a900460ff1690506001600060016101000a81548160ff02191690831515021790555060016000806101000a81548160ff02191690831515021790555033603360006101000a81548173ffffffffffffffffffffffffffffffffffffffff021916908373ffffffffffffffffffffffffffffffffffffffff16021790555060008090505b825181101561045b576035604080519081016040528085848151811015156103f857fe5b906020019060200201518152602001600081525090806001815401808255809150509060018203906000526020600020906002020160009091929091909150600082015181600001556020820151816001015550505080806001019150506103d4565b5080600060016101000a81548160ff0219169083151502179055505050565b603360009054906101000a900473ffffffffffffffffffffffffffffffffffffffff1681565b60346020528060005260406000206000915090508060000160009054906101000a900460ff16905081565b600080303b9050600081149150509056fea165627a7a7230582079535ee82649afd2815094c79d0829c383fee3eff63d0b94f9edb2adb5d5bd730029",
  "source": "pragma solidity >=0.4.22 <0.7.0;\n\nimport \"zos-lib/contracts/Initializable.sol\";\n\n\n\ncontract Ballot is Initializable {\n\n    address public owner;\n\n    struct Proposal {  \n        bytes32 name;\n        int voteCount;\n    }\n\n    struct Voter {\n        bool voted;\n    }\n\n    mapping(address => Voter) public voters;\n\n    Proposal[] public proposals;\n\n    function initialize(bytes32[] memory proposalNames) public initializer {\n        owner = msg.sender;\n        for(uint i = 0; i < proposalNames.length; i++) {\n            proposals.push(Proposal({\n                name: proposalNames[i],\n                voteCount: 0\n            }));\n        }\n    }\n\n}",
  "sourcePath": "/Users/Gavin/Desktop/Dapp1/src/Contracts/Ballot.sol",
  "compiler": {
    "name": "solc",
    "version": "0.5.0+commit.1d4f565a.Emscripten.clang"
  },
  "schemaVersion": "3.0.2",
  "updatedAt": "2019-03-20T00:48:44.283Z",
  "devdoc": {
    "methods": {}
  },
  "userdoc": {
    "methods": {}
  }
}